:02000004080AE8
:1000000000000A0820290A08000006000600050171
:080010000402FD0800000000DD
:04001800BC260A08F0
:10001C0009480A4908B5884205D0094A824202D0EB
:10002C00121A02F07FFA0748074A0021121A02F04E
:10003C0087FA064808BD00BF000000208C280A087B
:10004C006C0000206C000020E5050020E505002078
:10005C0070B500F011FE0025054E064CA41BA4083B
:10006C00A54200D170BD56F8043B98470135F7E71F
:10007C005C280A087C280A0800F024B808B500F0AF
:10008C0053F8BDE8084000F0AFBD00F067BB00F0CE
:10009C0065BB00F06BBB0078B0FA80F0400970478C
:1000AC00012303707047000013B50446044B1B7802
:1000BC008DF800303C2300F037FF204602B010BD15
:1000CC006C00002008B501F0CBFB01F099FA01F0AF
:1000DC0071F94FF4E13101F053F901F06BF9054975
:1000EC0000F0E2FC01F0BCFBBDE808400146024810
:1000FC0000F095B9D0260A087000002038B50468C5
:10010C0005467CB16368013B63605BB9236820469C
:10011C009B689847A368013BA3601BB923682046E2
:10012C00DB689847284638BD70B52B4888B000F07E
:10013C0005F90646284800F018F90546264800F04F
:10014C000AF90446244800F099F80246002835D0F4
:10015C000A22314604A800F048FC049A1F4902A860
:10016C00FFF7A2FF03A8FFF7C9FF04A800F0E2FB0A
:10017C000622294604A800F04BFC049A184902A850
:10018C00FFF792FF03A8FFF7B9FF04A800F0D2FB1A
:10019C000622214604A800F03BFC049A114902A84F
:1001AC00FFF782FF03A8FFF7A9FF04A800F0C2FB2A
:1001BC004FF47A7000F0BEFC08B070BD0A4B04A876
:1001CC001B780A498DF800303C2300F0ADFE05A8E1
:1001DC00FFF794FFECE700BF70000020DE260A0852
:1001EC00E8260A08F2260A086C00002000270A08F4
:1001FC000022024B02481A7000F008B86C00002074
:10020C00700000200368C9B29B6818470022426046
:10021C008260C26040F20112028201228274704735
:10022C0038B504460D460068612101F01FFA290A11
:10023C002068FFF7E7FF2068E9B2FFF7E3FF2068CB
:10024C0001F01BFA08B1002038BD022261212068A0
:10025C0001F005FA206803681B6998470028F2D062
:10026C00206803685B6998470546206803685B69EA
:10027C009847C0B240EA052080B2E5E708B540F2E5
:10028C000221FFF7CDFF431E5842584108BD2DE90E
:10029C00F8430446FFF7F2FF074618B90027384623
:1002AC00BDE8F8836121206801F0E0F903212068A2
:1002BC00FFF7A8FF00212068FFF7A4FF206801F0DA
:1002CC00DCF905460028E9D112226121206801F0F1
:1002DC00C6F9206803681B699847064658B3A846B8
:1002EC002E46A946206803685B699847EBB2102B31
:1002FC000DD8DFE803F009090C09090C18180C18C3
:10030C00180C1C1C0C1C1C00C3B243EA0929013537
:10031C00122DE7D10023C4F80490A660C4F80C8019
:10032C002382A374BBE7C3B243EA0626EFE7C3B24A
:10033C0043EA0828EBE780468146EBE710B5037CDF
:10034C0004460BB1FFF7A3FF01236068237401F08F
:10035C0029FF80B210BD10B5437C04460BB1FFF7EA
:10036C0096FF0123E068637410BD10B5837C0446CE
:10037C000BB1FFF78CFF0123A068A37410BDFF2005
:10038C000A448A4211D011F8013B5840082310F05E
:10039C00800F03F1FF334FEA400018BF80F03100AB
:1003AC0013F0FF03C0B2F2D1EBE77047F7B553BAC5
:1003BC000E46154601A902220446ADF80430FFF79B
:1003CC00DEFF07466121206801F050F9310A2068F0
:1003DC00FFF718FFF1B22068FFF714FF290A206815
:1003EC00FFF710FFE9B22068FFF70CFF20683946D1
:1003FC0003689B689847206801F03FF9B0FA80F0D9
:10040C00400903B0F0BD0A461021FFF7CFBF002111
:10041C00FFF7F9BF0A464FF48C41FFF7C7BF38B559
:10042C0004460846216001F0EBF82046FFF7EFFF89
:10043C00054648B102212046FFF7ECFF012245F2A8
:10044C0006312046FFF7B2FF284638BD08B5024BEF
:10045C001B685B68019308BD9C01060808B5024B3C
:10046C001B685B69019308BD9C01060808B5024B2B
:10047C001B689B69019308BDC401060808B5024BB3
:10048C001B685B6A019308BDC401060808B5024BE2
:10049C001B689B6A019308BDC401060808B5024B92
:1004AC001B68DB6A019308BDC401060808B5024B42
:1004BC001B681B6B019308BDC401060808B5024BF1
:1004CC001B685B6B019308BDC401060808B5024BA1
:1004DC001B681B6C019308BDC401060808B5024BD0
:1004EC001B68DB6C019308BDAC01060808B5024B18
:1004FC001B689B6D019308BDAC01060808B5024B47
:10050C001B68DB6D019308BDAC01060808B5024BF6
:10051C001B681B6E019308BDAC01060808B5024BA5
:10052C001B685B6E019308BDAC01060808B5024B55
:10053C001B689B6E019308BDAC01060808B5024B05
:10054C001B68DB6E019308BDAC01060808B5024BB5
:10055C001B681B6F019308BDAC01060808B5034B63
:10056C001B68D3F88030019308BD0000AC0106086D
:10057C0008B5034B1B68D3F89030019308BD0000FD
:10058C00AC01060808B5024B1B681B68019308BD3B
:10059C00D801060808B5024B1B685B68019308BDBF
:1005AC00D801060808B5024B1B681B69019308BDEE
:1005BC00D801060808B5024B1B685B69019308BD9E
:1005CC00D801060808B5024B1B689B69019308BD4E
:1005DC00D801060808B5024B1B68DB69019308BDFE
:1005EC00D801060808B5024B1B681B6A019308BDAD
:1005FC00D801060808B5024B1B689B6C019308BD1B
:10060C00C001060808B5024B1B685B68019308BD66
:10061C00A401060808B5024B1B685B69019308BD71
:10062C00A401060808B5024B1B68DB6C019308BDDE
:10063C00A401060808B5024B1B685B6D019308BD4D
:10064C00A401060808B5034B1B68D3F8903001933E
:10065C0008BD0000A401060808B5034B1B68D3F8BD
:10066C009C30019308BD0000A401060808B5024B9C
:10067C001B685B68019308BDC801060808B5024BEE
:10068C001B689B68019308BDC801060808B5024B9E
:10069C001B68DB68019308BDC801060808B5024B4E
:1006AC001B681B69019308BDC801060808B5024BFD
:1006BC001B685B69019308BDC801060808B5024BAD
:1006CC001B689B69019308BDC801060808B5024B5D
:1006DC001B68DB69019308BDC801060808B5024B0D
:1006EC001B681B6A019308BDC801060808B5024BBC
:1006FC001B681B6B019308BDC801060808B5024BAB
:10070C001B685B6B019308BDC801060808B5024B5A
:10071C001B681B6C019308BDC801060808B5024B89
:10072C001B685B6C019308BDC801060808B5024B39
:10073C001B685B69019308BDCC01060808B5024B28
:10074C001B681B6A019308BDCC01060808B5024B57
:10075C001B68DB6B019308BDCC01060808B5024B86
:10076C001B681B68019308BDA001060808B5024B65
:10077C001B685B68019308BDA001060808B5024B15
:10078C001B689B68019308BDA001060808B5024BC5
:10079C001B68DB6A019308BDA001060808B5024B73
:1007AC001B681B6B019308BDA001060808B5024B22
:1007BC001B685B6C019308BDA00106080222002097
:1007CC00044B1A60044B054A1860988098719A6023
:1007DC00FFF718BF90000020840000200000FFFFEE
:1007EC0010B5044601F0F3FE431E20462344834219
:1007FC0006D90278197800F8011B03F80129F6E7ED
:10080C0010BD70B50C46911E222922D8254668B120
:10081C00B0FBF2F602FB1600C1B2092894BF3031CE
:10082C005731C9B2304605F8011BF0E72A46302192
:10083C002344934202D902F8011BFAE75A1BAB423C
:10084C0038BF002200232046AB54FFF7C9FF2046D7
:10085C0070BD0020FCE738B5031E0C4615460DDABA
:10086C002D22B3F1004F0CBF1846584201230A70D9
:10087C002A461944FFF7C5FF204638BD0123F9E786
:10088C002DE9F04707460D4616461C46002200236C
:10089C003846294601F03EFC20B12D2305F10045D8
:1008AC0004F8013B00234FF0010A0A22D9B28E4210
:1008BC0003D902FB0AFA0133F8E7504601F04EF96E
:1008CC003A462B4601F0B4F98046894601F0A2FC69
:1008DC0005460F4601F076F902460B46404649465E
:1008EC0000F0EEFF0022124B01F028FC10B1013594
:1008FC0047F10007524628463946D31701F072FCDF
:10090C000123154621460A22FFF77BFF6EB12046D4
:10091C0001F05DFE2E23211823540A22334628466B
:10092C00BDE8F0470131FFF76CBFBDE8F08700BFB1
:10093C000000E03F10B504460068FFF717FF2046A3
:10094C0010BD10B50446006808B1FFF70FFF002377
:10095C00C4E90133236010BD38B504460D46006868
:10096C000131FFF70BFF10B1C4E90005012038BDC0
:10097C0010B50368044623B143688B4201D30120B0
:10098C0010BD2046FFF7E8FF0028F9D0A368002B24
:10099C00F5D122681370F2E770B50E461146044685
:1009AC001546FFF7E5FF20B92046FFF7CAFF2046A2
:1009BC0070BD2A4631462068A56001F0B3FD0021C8
:1009CC002268A368D154F2E738B505460C4649B104
:1009DC00084601F0FCFD214602462846FFF7DCFFE5
:1009EC00284638BDFFF7ADFFFAE710B500230446E3
:1009FC008AB0C4E90033A3602373084601A9FFF74A
:100A0C002AFF204601A9FFF7DFFF20460AB010BDE0
:100A1C00002330B504468BB0C0E900338360037308
:100A2C00D5B2084601F0ACF82A4601ABFFF728FF17
:100A3C00204601A9FFF7C8FF20460BB030BDF8B522
:100A4C0006460D4600248F18BD420CD03368304644
:100A5C009B6815F8011B9847031E01DB1C44F3E748
:100A6C00002C08BF1C462046F8BD70B505460C4648
:100A7C00084649B101F0ABFD2B68024621462846D9
:100A8C00BDE87040DB68184770BD03689B68184769
:100A9C0038B50D210546FFF7F8FF0A210446284614
:100AAC00FFF7F3FF204438BD38B50546FFF7DDFFEF
:100ABC0004462846FFF7ECFF204438BD0023012AEA
:100ACC0098BF0A2230B58BB00C468DF8243009A99A
:100ADC002546B4FBF2F404FB1253DBB2092B94BF92
:100AEC0030333733DBB2AA4201F8013DF0D9FFF7BE
:100AFC00BCFF0BB030BD002340681A461946FFF707
:100B0C00D5BD0B68036013B15A6801325A60704747
:100B1C00014B024A1A6070479400002008270A080B
:100B2C00024B1A68024B1A60704700BF000000208D
:100B3C00980000200021FFF76DBD10B583680446B6
:100B4C0013B1032201469847204610BD13B56C46DD
:100B5C000B46024603C884E8030093E8030082E8CE
:100B6C00030094E8030083E8030002B010BD00000A
:100B7C000022014B9A6070479C000020014B1860CA
:100B8C00704700BF0400002008B5134B43B100F0C0
:100B9C0011FC03681B699847002801DDAFF3008046
:100BAC000E4B43B100F0B6FC03681B699847002854
:100BBC0001DDAFF300800A4B0BB1AFF30080094BA2
:100BCC0043B100F031FC03681B699847002801DD34
:100BDC00AFF3008008BD00BF000000000000000063
:100BEC00000000000000000008B5FFF7CDFFFFF784
:100BFC0035FC014B186008BD180500200548064A55
:100C0C0008B5121A054901F08DFC054B054A1A600E
:100C1C0008BD00BF004002400440024088280A087A
:100C2C00004002401E1C279A002307B51A466FF09D
:100C3C0077010093FFF710FD03B05DF804FB000093
:100C4C0007B543880A2B08D0502B0BD1094B1B68D6
:100C5C004BB103B05DF804EB1847FFF7E5FF03B0A9
:100C6C005DF804FB00231A466FF077010093FFF741
:100C7C00F3FCF4E7B0000020002110B51148FFF799
:100C8C0095FD114B1A68114B9A420CBF01220022A0
:100C9C000F4B1A7001D0FFF7B1FFFFF7D7FB0446DB
:100CAC0001F056FC0B4B13B12046AFF30080002132
:100CBC000848FFF74BFDBDE8104000210648FFF740
:100CCC00C1BC00BF890B0A08004002401E1C279AB9
:100CDC00AC000020000000004D0C0A0870470020FA
:100CEC00704710B50446102100F0DEFD204610BD03
:100CFC0008B5FFF7F6FF08BD002230B54FF69C741F
:100D0C00026084808D888C800C68858004600A6009
:100D1C0030BD10B504460068FFF728FD204610BD15
:100D2C0038B5C468F4B12378022B03D104F10C005C
:100D3C00FFF7EFFF656835B12846FFF7FEFE10217F
:100D4C00284600F0B1FDA56835B12846FFF7F5FE41
:100D5C001021284600F0A8FD2046BDE8384014219B
:100D6C0000F0A2BD38BD73B50E46044656F8043BE0
:100D7C000D4601A831460093FFF7C3FE009B019A74
:100D8C0023600023626001A801930093FFF7B6F97A
:100D9C003046FFF7B3F92846082100F085FD2046C0
:100DAC0002B070BD826810B50AB900F081FDC3684D
:100DBC00BDE81040184708B5006800F11001FFF7B6
:100DCC00F1FF08BD826810B50AB900F071FDC36867
:100DDC00BDE81040184708B5006800F11001FFF796
:100DEC00F1FF08BD38B500230446036010200D4602
:100DFC00FFF74BF928B10123C0E90133024BC56061
:100E0C0003602060204638BD30270A0838B500231F
:100E1C0083608B6804460D462BB102229847EB6821
:100E2C00E360AB68A360204638BD0000F0B589B024
:100E3C0004686846FFF760FF4FF00203D4E84F2FB9
:100E4C00002A03D1C4E8413F0029F7D125D104F190
:100E5C000C0569462846FFF74FFF0123BFF35B8F54
:100E6C0063700020BFF35B8F04F1080353E8006F3D
:100E7C0043E80002002AF9D1BFF35B8F6EB1FFF794
:100E8C00D1FB78B129463046FFF78CFF3046FFF78F
:100E9C0054FE1021304600F007FD6846FFF739FF7D
:100EAC0009B0F0BD314602A8FFF7B0FFE068B4F915
:100EBC00105008B101F070FB06901020ADF81C50DA
:100ECC00FFF7E3F80546E8B1002787601820FFF725
:100EDC00DCF8044688B10146876002A8FFF736FEAD
:100EEC00049BA268A360059B0492E26806A9E360D8
:100EFC0004F110000592FFF7FFFE084B2C60EB602D
:100F0C00074BAB6006A8FFF704FF02A8FFF715FE1E
:100F1C00002229460348FFF78DFBB7E7C30D0A08EB
:100F2C0059100A0869150A082DE9F0478AB00546D8
:100F3C000C46174698469DF84890FFF7F7FB07AE0E
:100F4C00824638BB4FF62E73059005A93046ADF896
:100F5C001830FFF7D1FE1420FFF797F8044648B17C
:100F6C00022303700123C0E901AA437031460C30FF
:100F7C00FFF7C2FE2846214640F8044BFFF732FF2C
:100F8C003046FFF7C6FE05A8FFF7C3FE28460AB099
:100F9C00BDE8F0870C234FF0000A1420CDE908AA15
:100FAC000793FFF772F8014628B1C0E901AA80F84F
:100FBC0000A080F801A004A80391FFF713FF224BB7
:100FCC0008200893FFF761F8824628B1039B04A917
:100FDC0040F8043BFFF795FD424639462046009603
:100FEC005FFA89F3CDF824A0FFF7A8FBB8B9039BEF
:100FFC005B7803F0FF0293B94FF69C7305A903A825
:10100C000592ADF81830FFF711FF05A8FFF781FE28
:10101C0005A80999FFF7A7FE06A8FFF76FF8039B31
:10102C0004A906A80593FFF76CFD059B069A2B6097
:10103C0000236A6006A806930593FFF75FF804A8DF
:10104C00FFF75CF8A2E700BF1D110A08022AF8B5E9
:10105C00054607D0032A18D0012A01D10B6803607A
:10106C000020F8BD18200E68FFF70FF8044650B1A9
:10107C003146FFF7CBFE3069B6F9147008B101F0B8
:10108C008BFA2061A7822C60EAE70468002CE7D079
:10109C0004F11000FFF73DFE2046FFF74EFD18212E
:1010AC00204600F001FCDBE738B5002383608B6839
:1010BC0004460D462BB102229847EB68E360AB68FF
:1010CC00A360204638BD022A70B5044607D0032A17
:1010DC0012D0012A01D10B680360002070BD1420CE
:1010EC000E68FEF7D2FF054620B13146FFF7DCFF54
:1010FC00337C2B742560F0E70468002CEDD020467F
:10110C00FFF71BFD1421204600F0CEFBE5E70000A5
:10111C00F0B5044689B00D4601A81146FFF723FE31
:10112C00A4B124B21DB1284601F036FA054601A837
:10113C0003A90395ADF81040FFF778FE03A8FFF75D
:10114C00E8FD02A8FEF7DAFF09B0F0BD0123019D0E
:10115C00D5E84F2F002A03D1C5E8413F0029F7D12C
:10116C00EFD12B73BFF35B8F6B70BFF35B8F2B1DBA
:10117C0053E8006F43E80042002AF9D1BFF35B8FBC
:10118C00002EDED02046FFF74DFA074660B1304600
:10119C0005F10C01FFF716FE3046FFF7CEFC1021CF
:1011AC00304600F081FBCCE7314603A8FFF77CFF0B
:1011BC002B7B10208DF81C30FEF767FF0546D0B155
:1011CC0087601420FEF761FF044678B10146876002
:1011DC0003A8FFF7BBFC059BA268A360069B0592C6
:1011EC00E268E3609DF81C3006922374064B2C6079
:1011FC00EB60064BAB6003A8FFF79FFC002229466F
:10120C000348FFF717FAC7E7E30D0A08D3100A08DB
:10121C0069150A08704710B50446182100F044FB04
:10122C00204610BDF8B50E46002400F10807051D38
:10123C0017F8011D0A223046FFF740FCAF42044468
:10124C0001D12046F8BD002CF2D02E213046FFF7FC
:10125C001CFC0444ECE7000010B50446044B1122BE
:10126C00002140F8043B01F06BF9204610BD00BF93
:10127C004C270A080346074A10B543F8042B01F122
:10128C00100251F8044B914243F8044BF9D10A78FF
:10129C001A7010BD4C270A08024AC0E9002104222A
:1012AC00027570474C270A0810B59DF8084044EAAF
:1012BC000324042344EA024444EA016444600375B1
:1012CC0010BD000037B5044D05609DF81850009511
:1012DC00FFF7EAFF03B030BD4C270A084174704792
:1012EC007047704708B50021007CFFF76BF940EAA6
:1012FC00E07008BD08B50121007CFFF763F940EAF6
:10130C00E07008BD08B5007CFFF754F920EAE070E6
:10131C0008BD08B5007CFFF745F920EAE07008BD70
:10132C0038B50446007C0D46FFF744F9002801DC73
:10133C00607C28B12946207CFFF74CF920EAE0704C
:10134C0038BD007CFFF74EB910B50446142100F0EF
:10135C00ABFA204610BD704710B54FF47A730446B3
:10136C0008460021C4E90113044B207423600123B7
:10137C0011466374FFF706F9204610BD60270A0872
:10138C000022007CFFF706B910B504461422002198
:10139C0001F0D6F8054B20466360054BE36040F244
:1013AC00011323818123238210BD00BFE4000020A0
:1013BC00E501002030B50E4D87B001A8FFF7E4FF22
:1013CC002978BFF35B8F11F001040ED12846FEF78C
:1013DC0062FE50B1214601AA0648FFF7BDFF284620
:1013EC00FEF75EFE044801F097F8024807B030BDE6
:1013FC00B4000020BC000020ED120A0810B5044611
:10140C001422002101F09CF8054B20466360054B2B
:10141C00E36040F2011323818123238210BD00BFBE
:10142C00660200206703002010B50E4C86B001A8A0
:10143C00FFF7E4FF2378BFF35B8FDB070ED4204666
:10144C00FEF729FE50B1012101AA0748FFF784FFDE
:10145C002046FEF725FE054801F05EF8024806B06E
:10146C0010BD00BFB8000020D000002063130A0894
:10147C00704741747047704708B5007CFFF726F839
:10148C0020EAE07008BD08B5007CFEF7FFFF20EAFB
:10149C00E07008BD08B5007CFFF708F840EAE07082
:1014AC0008BD08B5007CFEF7F9FF40EAE07008BD06
:1014BC00007CFFF703B870B5467C04460D462EB190
:1014CC002946207CBDE87040FEF7D8BF007CFEF7B3
:1014DC00FDFF0028F4DC304670BD10B50446142125
:1014EC0000F0E2F9204610BD4FF0000C10B5044698
:1014FC00084611464FF47A72C4E901C2044A2074BA
:10150C002260012262741A46FEF7B0FF204610BD1D
:10151C0090270A0838B50C4D2978BFF35B8F11F072
:10152C0001040FD12846FEF7B6FD58B12146074BF2
:10153C00074A0848FFF7D8FF2846FEF7B1FD0648D2
:10154C0000F0EAFF034838BDE803002070040020D7
:10155C00EC030020F404002083140A0810B58368FF
:10156C0004460BB900F0A4F9C3689847A3681BB1F3
:10157C0003222146204698472046BDE81040102102
:10158C0000F092B97047F8B5064615460C468F1810
:10159C00BC4206D0336830469B6814F8011B984750
:1015AC00F6E72846F8BD0022007CFEF7AFBF00210D
:1015BC00007CFEF7B3BF0021007CFEF7B7BF002113
:1015CC00007CFEF7BBBF0021007CFEF7BFBF10B54F
:1015DC000446142100F068F9204610BD10B54FF4F4
:1015EC007A73044608460021C4E90113034B1146E3
:1015FC0023602074FEF7B2FF204610BDC0270A08F6
:10160C000023007C1A461946FEF768BF7FB50022FE
:10161C001423CDE90122ADF804300B78007C8DF851
:10162C0008304B680393CB6804930B7A01A905939C
:10163C00FEF79EFF07B05DF804FB1FB5003B8DF86D
:10164C0000104FF0640118BF012303916946019209
:10165C008DF80830FFF7DAFF05B05DF804FB0123C5
:10166C00FFF7EBBF0022007CFEF740BFC9B2FFF7CB
:10167C00F9BF0022007CFEF741BF0121FFF7F9BF43
:10168C00002240681146FFF709B8F0B5154689B03D
:10169C0011220E460446002103A800F051FF2846F3
:1016AC0000F095FF002781B273682846009703AAC3
:1016BC00FEF7A0FF30B139462046FFF7EDFD20467E
:1016CC0009B0F0BD204603A9FFF7D4FDF7E70022CF
:1016DC0040681146FFF702B8002240681146FFF738
:1016EC000DB800224068FFF701B80022406881F075
:1016FC000101FEF7EBBF002340681A461946FEF7BE
:10170C00DDBF002240681146FEF7B8BF002202215F
:10171C004068FEF7BBBF002340681A46FEF7A6BF21
:10172C000422024B5A60024A1A60704708050020D6
:10173C00E8270A08002340681A46FEF797BF0022E4
:10174C0002214068FEF7A2BF002240681146FEF756
:10175C0095BF002240681146FEF7A0BF00234068E9
:10176C001A461946FEF7A2BF002340681A461946CE
:10177C00FEF7A4BF00214068FEF7C8BF00214068F7
:10178C00FEF7CCBF0022406881F00101FEF79EBF3E
:10179C0000224068FEF7AABF002240681146FEF7FF
:1017AC00ADBF002240681146FEF798BF70B51546D4
:1017BC008EB0044608A8FFF74FFD1122002103A8A4
:1017CC0000F0BEFE0026284600F001FF0A4B0096F2
:1017DC0081B25B68284603AAFEF70CFF30B1314694
:1017EC002046FFF759FD20460EB070BD204603A9D8
:1017FC00FFF740FDF7E700BF08050020024B034A46
:10180C001A6000225A6070471005002024280A082C
:10181C00002307B51A46194600930348FFF752FDFB
:10182C0003B05DF804FB00BF1C05002070470000EE
:10183C00002370B5202543801423084E04460380F2
:10184C00314685600561284600F030F8314660600D
:10185C00284600F02BF8E060204670BD58280A0896
:10186C0030B50E4D87B02978BFF35B8F11F00104B2
:10187C0011D12846FEF70FFC68B101A8FFF7D8FF7D
:10188C00214601AA0648FFF7A9FE2846FEF708FCE8
:10189C00044800F041FE024807B030BD340500207A
:1018AC003805002039180A08FEF7F3BBFEF7EFBB2A
:1018BC0008B5FEF76BFF000081F0004102E000BFAD
:1018CC0083F0004330B54FEA41044FEA430594EAF4
:1018DC00050F08BF90EA020F1FBF54EA000C55EA2F
:1018EC00020C7FEA645C7FEA655C00F0E2804FEA00
:1018FC005454D4EB5555B8BF6D420CDD2C4480EAE2
:10190C00020281EA030382EA000083EA010180EA11
:10191C00020281EA0303362D88BF30BD11F0004F5F
:10192C004FEA01314FF4801C4CEA113102D0404295
:10193C0061EB410113F0004F4FEA03334CEA1333D0
:10194C0002D0524263EB430394EA050F00F0A780E8
:10195C00A4F10104D5F1200E0DDB02FA0EFC22FAE3
:10196C0005F2801841F1000103FA0EF2801843FAD7
:10197C0005F359410EE0A5F120050EF1200E012AC8
:10198C0003FA0EFC28BF4CF0020C43FA05F3C01806
:10199C0051EBE37101F0004507D54FF0000EDCF17F
:1019AC00000C7EEB00006EEB0101B1F5801F1BD328
:1019BC00B1F5001F0CD349085FEA30004FEA3C0C2C
:1019CC0004F101044FEA445212F5800F80F09A8022
:1019DC00BCF1004F08BF5FEA500C50F1000041EB26
:1019EC00045141EA050130BD5FEA4C0C404141EB2A
:1019FC000101013C28BFB1F5801FE9D291F0000F25
:101A0C0004BF01460020B1FA81F308BF2033A3F1D3
:101A1C000B03B3F120020CDA0C3208DD02F1140CCA
:101A2C00C2F10C0201FA0CF021FA02F10CE002F105
:101A3C001402D8BFC2F1200C01FA02F120FA0CFCFE
:101A4C00DCBF41EA0C019040E41AA2BF01EB045147
:101A5C00294330BD6FEA04041F3C1CDA0C340EDC45
:101A6C0004F11404C4F1200220FA04F001FA02F388
:101A7C0040EA030021FA04F345EA030130BDC4F146
:101A8C000C04C4F1200220FA02F001FA04F340EA3B
:101A9C000300294630BD21FA04F0294630BD94F0EC
:101AAC00000F83F4801306BF81F480110134013DD3
:101ABC004EE77FEA645C18BF7FEA655C29D094EA44
:101ACC00050F08BF90EA020F05D054EA000C04BFC2
:101ADC001946104630BD91EA030F1EBF00210020AD
:101AEC0030BD5FEA545C05D14000494128BF41F04C
:101AFC00004130BD14F580043CBF01F5801130BDB0
:101B0C0001F0004545F0FE4141F470014FF000003A
:101B1C0030BD7FEA645C1ABF194610467FEA655CEB
:101B2C001CBF0B46024650EA013406BF52EA03358D
:101B3C0091EA030F41F4002130BD00BF90F0000F7B
:101B4C0004BF0021704730B54FF4806404F13204B7
:101B5C004FF000054FF0000150E700BF90F0000F70
:101B6C0004BF0021704730B54FF4806404F1320497
:101B7C0010F0004548BF40424FF000013EE700BF67
:101B8C0042004FEAE2014FEA31014FEA02701FBFF7
:101B9C0012F07F4393F07F4F81F06051704732F029
:101BAC007F4208BF704793F07F4F04BF41F4002180
:101BBC00704730B54FF4607401F0004521F00041DE
:101BCC001CE700BF50EA010208BF704730B54FF068
:101BDC0000050AE050EA010208BF704730B511F069
:101BEC00004502D5404261EB41014FF4806404F1A1
:101BFC0032045FEA915C3FF4D8AE4FF003025FEA27
:101C0C00DC0C18BF03325FEADC0C18BF033202EBAA
:101C1C00DC02C2F1200300FA03FC20FA02F001FA04
:101C2C0003FE40EA0E0021FA02F11444BDE600BFA7
:101C3C0070B54FF0FF0C4CF4E06C1CEA11541DBF56
:101C4C001CEA135594EA0C0F95EA0C0F00F0DEF821
:101C5C002C4481EA030621EA4C5123EA4C5350EA06
:101C6C00013518BF52EA033541F4801143F4801357
:101C7C0038D0A0FB02CE4FF00005E1FB02E506F0E8
:101C8C000042E0FB03E54FF00006E1FB03569CF03D
:101C9C00000F18BF4EF0010EA4F1FF04B6F5007F43
:101CAC0064F5407404D25FEA4E0E6D4146EB0606B5
:101CBC0042EAC62141EA55514FEAC52040EA5E503E
:101CCC004FEACE2EB4F1FD0C88BFBCF5E06F1ED8E8
:101CDC00BEF1004F08BF5FEA500E50F1000041EB1F
:101CEC00045170BD06F0004646EA010140EA0200CC
:101CFC0081EA0301B4EB5C04C2BFD4EB0C0541EAEE
:101D0C00045170BD41F480114FF0000E013C00F302
:101D1C00AB8014F1360FDEBF002001F0004170BD26
:101D2C00C4F10004203C35DA0C341BDC04F114043F
:101D3C00C4F1200500FA05F320FA04F001FA05F2CB
:101D4C0040EA020001F0004221F0004110EBD37098
:101D5C0021FA04F642EB06015EEA430E08BF20EAC4
:101D6C00D37070BDC4F10C04C4F1200500FA04F367
:101D7C0020FA05F001FA04F240EA020001F00041F9
:101D8C0010EBD37041F100015EEA430E08BF20EA6C
:101D9C00D37070BDC4F1200500FA05F24EEA020EB4
:101DAC0020FA04F301FA05F243EA020321FA04F0E3
:101DBC0001F0004121FA04F220EA020000EBD3709A
:101DCC005EEA430E08BF20EAD37070BD94F0000F9A
:101DDC000FD101F00046400041EB010111F4801FCE
:101DEC0008BF013CF7D041EA060195F0000F18BF7F
:101DFC00704703F00046520043EB030313F4801FBB
:101E0C0008BF013DF7D043EA0603704794EA0C0F74
:101E1C000CEA135518BF95EA0C0F0CD050EA41068A
:101E2C0018BF52EA4306D1D181EA030101F0004107
:101E3C004FF0000070BD50EA410606BF104619462F
:101E4C0052EA430619D094EA0C0F02D150EA01363B
:101E5C0013D195EA0C0F05D152EA03361CBF10467C
:101E6C0019460AD181EA030101F0004141F0FE411B
:101E7C0041F470014FF0000070BD41F0FE4141F49F
:101E8C00780170BD70B54FF0FF0C4CF4E06C1CEA9F
:101E9C0011541DBF1CEA135594EA0C0F95EA0C0F54
:101EAC0000F0A7F8A4EB050481EA030E52EA03350F
:101EBC004FEA013100F088804FEA03334FF0805530
:101ECC0045EA131343EA12634FEA022245EA11155D
:101EDC0045EA10654FEA00260EF000419D4208BF0E
:101EEC00964244F1FD0404F5407402D25B084FEABB
:101EFC003202B61A65EB03055B084FEA32024FF467
:101F0C0080104FF4002CB6EB020E75EB030E22BFC3
:101F1C00B61A754640EA0C005B084FEA3202B6EB83
:101F2C00020E75EB030E22BFB61A754640EA5C0032
:101F3C005B084FEA3202B6EB020E75EB030E22BFC2
:101F4C00B61A754640EA9C005B084FEA3202B6EBC3
:101F5C00020E75EB030E22BFB61A754640EADC0082
:101F6C0055EA060E18D04FEA051545EA16754FEAE4
:101F7C0006164FEAC30343EA52734FEAC2025FEA02
:101F8C001C1CC0D111F4801F0BD141EA00014FF091
:101F9C0000004FF0004CB6E711F4801F04BF014362
:101FAC000020B4F1FD0C88BFBCF5E06F3FF6AFAE7E
:101FBC00B5EB030C04BFB6EB020C5FEA500C50F10E
:101FCC00000041EB045170BD0EF0004E4EEA113191
:101FDC0014EB5C04C2BFD4EB0C0541EA045170BD98
:101FEC0041F480114FF0000E013C90E645EA060EDC
:101FFC008DE60CEA135594EA0C0F08BF95EA0C0F0A
:10200C003FF43BAF94EA0C0F0AD150EA01347FF451
:10201C0034AF95EA0C0F7FF425AF104619462CE728
:10202C0095EA0C0F06D152EA03353FF4FDAE10468B
:10203C00194622E750EA410618BF52EA43067FF4DC
:10204C00C5AE50EA41047FF40DAF52EA43057FF46C
:10205C00EBAE12E74FF0FF3C06E000BF4FF0010C77
:10206C0002E000BF4FF0010C4DF804CD4FEA410CDB
:10207C007FEA6C5C4FEA430C18BF7FEA6C5C1BD0A8
:10208C0001B050EA410C0CBF52EA430C91EA030F29
:10209C0002BF90EA020F0020704710F1000F91EA86
:1020AC00030F58BF994208BF90422CBFD8176FEA54
:1020BC00E37040F0010070474FEA410C7FEA6C5C22
:1020CC0002D150EA013C07D14FEA430C7FEA6C5C29
:1020DC00D6D152EA033CD3D05DF8040B704700BF55
:1020EC008446104662468C461946634600E000BFA3
:1020FC0001B5FFF7B7FF002848BF10F1000F01BD75
:10210C004DF808EDFFF7F4FF0CBF012000205DF83F
:10211C0008FB00BF4DF808EDFFF7EAFF34BF0120C4
:10212C0000205DF808FB00BF4DF808EDFFF7E0FF5D
:10213C0094BF012000205DF808FB00BF4DF808EDAE
:10214C00FFF7CEFF94BF012000205DF808FB00BF15
:10215C004DF808EDFFF7C4FF34BF012000205DF8F7
:10216C0008FB00BF4A0011D212F5001211D20DD596
:10217C006FF47873B3EB62520ED44FEAC12343F081
:10218C00004343EA505323FA02F070474FF000002B
:10219C00704750EA013002D14FF0FF3070474FF0DA
:1021AC000000704742000ED2B2F1FE4F0BD34FF03D
:1021BC009E03B3EB126209D44FEA002343F00043B1
:1021CC0023FA02F070474FF00000704712F1610FD4
:1021DC0001D1420202D14FF0FF3070474FF00000A6
:1021EC00704700BF53B94AB9002908BF00281CBF6B
:1021FC004FF0FF314FF0FF3000F08CB9ADF1080C0F
:10220C006DE904CE00F024F8DDF804E0DDE90223EA
:10221C0004B07047D0B500220B4B06460F46FFF7B3
:10222C0007FDFFF79FFF0446FFF788FC0022074BD2
:10223C00FFF7FEFC02460B4630463946FFF740FBE3
:10224C00FFF790FF2146D0BD0000F03D0000F041AB
:10225C002DE9F047089E0D4604468E46002B40F0B3
:10226C0083808A42174647D9B2FA82F34BB1C3F145
:10227C00200105FA03FE20FA01F19F4041EA0E0EFF
:10228C009C404FEA1748BEFBF8FC1FFA87F908FB85
:10229C001CE20CFB09F0210C41EA024290420AD9E3
:1022AC00BA180CF1FF3180F01881904240F2158180
:1022BC00ACF1020C3A44121AB2FBF8F008FB1022F3
:1022CC0000FB09F1A4B244EA0244A14209D93C1929
:1022DC0000F1FF3280F00381A14240F2008102380C
:1022EC003C44641A002140EA0C401EB10022DC4040
:1022FC00C6E90042BDE8F08702B9FFDEB2FA82F30C
:10230C00002B4FD18D1A01214FEA124E1FFA82F881
:10231C00B5FBFEFC0EFB1C5508FB0CF0220C42EA34
:10232C000545A84207D97D190CF1FF3202D2A8420B
:10233C0000F2E98094462D1AB5FBFEF00EFB105509
:10234C0008FB00F8A4B244EA0544A04507D93C199F
:10235C0000F1FF3202D2A04500F2D9801046A4EB66
:10236C00080440EA0C40C0E78B4208D9002E00F06C
:10237C00B1800021C6E900050846BDE8F087B3FA34
:10238C0083F100294BD1AB4202D3824200F2B980D7
:10239C00841A65EB030301209E46002EAAD0C6E9E1
:1023AC00004EA7E79F40C3F12002D1404FEA174EE1
:1023BC00B1FBFEF01FFA87F80EFB101124FA02F2A3
:1023CC009D4000FB08FC2A43150C45EA0145AC4531
:1023DC0004FA03F409D97D1900F1FF3180F08F80E4
:1023EC00AC4540F28C8002383D44A5EB0C05B5FBA6
:1023FC00FEF10EFB115C01FB08F995B245EA0C45A8
:10240C00A94507D97D1901F1FF3274D2A94572D9BA
:10241C0002393D44A5EB090541EA004178E7C1F1D9
:10242C0020078B4022FA07FC4CEA030C25FA07F430
:10243C004FEA1C4EB4FBFEF91FFA8CF80EFB194444
:10244C0020FA07F309FB08FA8D401D432B0C43EAD5
:10245C000444A24502FA01F200FA01F309D91CEB7B
:10246C00040409F1FF3048D2A24546D9A9F102096A
:10247C006444A4EB0A04B4FBFEF00EFB104400FB16
:10248C0008FAADB245EA0444A24508D91CEB040491
:10249C0000F1FF352DD2A2452BD90238644440EA15
:1024AC000940A0FB0289A4EB0A044C45C6464D46E4
:1024BC0019D316D05EB1B3EB0E0264EB050404FA2B
:1024CC0007F722FA01F31F43CC40C6E90074002140
:1024DC00BDE8F087314630460CE78C46EBE61046FB
:1024EC00FFE64345E6D2B8EB020E69EB0C0501386A
:1024FC00E0E72846D3E711468CE78146B9E7084662
:10250C0073E7084649E7ACF1020C3D4413E7023887
:10251C003C4424E7704700BF002301461A46184686
:10252C0000F05EB80A44914200F1FF3300D17047CD
:10253C0010B511F8014B914203F8014FF9D110BDC0
:10254C0003460244934200D1704703F8011BF9E79C
:10255C0038B50D4B04461D68AB6B7BB91820FEF7E4
:10256C00FDF80A4A0A4BA863C0E90023094B012273
:10257C0083600B2383810023C0E904230022AB6B0F
:10258C001C615A6138BD00BF040000200E33CDAB76
:10259C0034126DE6ECDE0500024B0146186800F0C3
:1025AC0003B800BF0400002070B5044608460D4671
:1025BC0000F00DF8461C31462046FEF7EFF80446B5
:1025CC0018B132462946FFF7ADFF204670BD0346D1
:1025DC0013F8012B002AFBD1181A013870470000A0
:1025EC002DE9F843DFF8BC800646D8F800001F46FA
:1025FC000D46914600F058F8264B1C6834B9264C11
:10260C001C60264B13B11B68C4F8883063681F2B01
:10261C0007DDD8F8000000F049F84FF0FF30BDE8B6
:10262C00F8835EB3D4F8880088B91D4B23B9D8F869
:10263C00000000F03AF8F0E74FF48470FEF78EF8E3
:10264C000028F4D00023C0E94033C4F888000122EC
:10265C006368022E40F8239002FA03F200EB830128
:10266C00D0F8003143EA0203C0F80031C1F88070A1
:10267C0002BFD0F804311A43C0F804216368D8F8BB
:10268C0000005A1C0233626044F8235000F00EF82C
:10269C000020C4E7D80500204C05002000000000F5
:1026AC0069070A08680000207047704770470000EF
:1026BC001D000A085D000A0885000A0889000A083E
:1026CC00000000005343443330204578616D706C3A
:1026DC006500636F322870706D293A002074656D47
:1026EC00702843293A002068756D696469747928EB
:1026FC0025293A004E6F206461746100617070008E
:10270C0025592D256D2D25645425483A254D3A25FE
:10271C0053257A0061736374696D650000000000D5
:10272C0000000000E90C0A08EF0C0A082D0D0A083D
:10273C00FD0C0A08EB0C0A08000000000000000069
:10274C0031120A0821120A0823120A08000000009C
:10275C0000000000EF120A0855130A082D130A088E
:10276C004B0A0A081F130A08F1120A0801130A0877
:10277C004F130A0811130A08E9120A080000000096
:10278C00000000007D140A08E7140A08C3140A08A4
:10279C004B0A0A0893140A08AF140A08A1140A0871
:1027AC00BD140A087F140A0885140A0800000000EA
:1027BC000000000091150A08DB150A08B3150A0879
:1027CC0093150A08BB150A08C3150A08CB150A0885
:1027DC00D3150A08000000000000000023170A08A7
:1027EC0019170A080F170A088D160A08030B0A088E
:1027FC0003170A0881170A0889170A08F7160A0826
:10280C00EF160A08E5160A08DB160A0897160A08D6
:10281C00000000000000000041170A084B170A08CE
:10282C0055170A085F170A0869170A0875170A0866
:10283C0081170A0889170A0891170A089D170A08B0
:10284C00A5170A08AF170A08B9170A0800000000F4
:10285C00FD010A08C9070A081D0B0A082D0B0A08F6
:10286C007D0B0A082D170A0809180A081D180A08F2
:04287C000000000058
:08288000DCF9FF7F01000000FC
:04288800000000004C
:10288C0020270A08080000200000000000000000BB
:10289C00000000000000000000000000000000002C
:1028AC00000000000000000000000000000000001C
:1028BC00000000000000000000000000000000000C
:1028CC0000000000000000000000000000000000FC
:1028DC0000000000000000000000000000000000EC
:0C28EC000000000000000000DD050020DE
:1028F800FFFFFFFF00000102030405060708090A9D
:102908000B0C0D0E0F101112131415161718191A97
:082918001B1C1D1E1F202800DE
:04292000785634129F
:04000005080A001CC9
:00000001FF
