:02000002D0002C
:1040000000400D003C610D00000006000C000501A1
:084010000401FD08000000009E
:04401800845E0D00B5
:10401C0009480A49884208B505D0094A824202D0AB
:10402C00121A01F050FE0748074A0021121A01F03B
:10403C0058FE014808BD00BF18E50320A4600D0020
:10404C0088E5032088E50320EDE7032070B5074ED3
:10405C00074C00F09FFFA41BA4080025A54200D12B
:10406C0070BD56F8043B98470135F7E778600D00B2
:10407C009C600D0000F054B808B500F0C9F8BDE81C
:10408C00084000F03FBF00F0C7BC00F0C5BC00F01A
:10409C00CBBC0078B0FA80F0400970470123037064
:1040AC007047000013B5054B1B788DF800303C238E
:1040BC00044601F0EFF8204602B010BD88E503205D
:1040CC00034B1A88824238BF18801888704700BF8B
:1040DC00A0E50320024B0021188801F090BD00BF21
:1040EC0018E50320024B0121188801F088BD00BFA0
:1040FC0018E5032038B5046805467CB16368013BBC
:10410C0063605BB9236820469B689847A368013BB2
:10411C00A3601BB923682046DB689847284638BD46
:10412C0030B58BB001F09EFD2E4C2F4D012101F0CE
:10413C00E5FB01F097FD01F0E5FB2088012101F082
:10414C004DFD2088294C012101F059FD284A2949AF
:10415C00294800F0ACFF294906A800F084FD284B43
:10416C000A22197802A800F0BEFD02A906A800F0E8
:10417C00E4FD294600F0EDFD214602686846FFF794
:10418C0091FF01A8FFF7B6FF02A800F021FD06A8D9
:10419C0000F01EFD1B4906A800F065FD1A4B0A2213
:1041AC00198802A800F09FFD02A906A800F0C5FD21
:1041BC00294600F0CEFD214602686846FFF772FFE3
:1041CC0001A8FFF797FF02A800F002FD06A800F077
:1041DC00FFFC01F047FD01460C4800F021FA0BB042
:1041EC0030BD00BF18E50320AD5E0D00AF5E0D00C5
:1041FC00985E0D0061430D008F500D00A15E0D0007
:10420C00A2E50320B65E0D00A4E503208CE5032097
:10421C0030B53848384D8BB000F0A2F93749044618
:10422C0006A800F020FD0A22214602A800F05BFD42
:10423C0002A906A800F081FD314900F08AFD314940
:10424C0002686846FFF72EFF01A8FFF753FF02A88C
:10425C0000F0BEFC06A800F0BBFC2046FFF730FFC8
:10426C002949288006A800F0FEFC0A22298802A809
:10427C0000F039FD02A906A800F05FFD204900F00E
:10428C0068FD204902686846FFF70CFF01A8FFF79C
:10429C0031FF02A800F09CFC06A800F099FC2B88CA
:1042AC00B4EB530F20D8194C1949012306A82370DD
:1042BC0000F0D9FC0A22217802A800F014FD02A912
:1042CC0006A800F03AFD0E4900F043FD0D490268C6
:1042DC006846FFF7E7FE01A8FFF70CFF02A800F005
:1042EC0077FC06A800F074FC4EF6602000F0C4FDCC
:1042FC000BB030BD8CE50320A4E50320BF5E0D00A0
:10430C00AD5E0D00AF5E0D00B65E0D00A2E50320A4
:10431C00A15E0D0038B50468002000F0D1FA20B180
:10432C00637813B900F058FBFAE76378BFF35B8F3F
:10433C00651C0BB9002038BD002000F0C1FA20B17B
:10434C002B7813B900F048FBFAE72378012BF1D155
:10435C00207BF0E730B504468BB0254800F000F91F
:10436C0024490546204600F009FD18B3224906A849
:10437C0000F079FC0A22294602A800F0B4FC02A93C
:10438C0006A800F0DAFC1D4900F0E3FC1C490268A9
:10439C006846FFF787FE6846FFF7BCFF01A8FFF7EA
:1043AC00A9FE02A800F014FC06A800F011FC0120E4
:1043BC000BB030BD1349204600F0E0FC10B1FFF704
:1043CC0089FEF4E71049204600F0D8FC10B1FFF745
:1043DC0089FEECE70D4A0E4906A8FFF763FE06A816
:1043EC00FFF798FF07A8FFF785FE4FF0FF30DFE7D8
:1043FC008CE50320C75E0D00BF5E0D00AD5E0D00A9
:10440C00AF5E0D00CC5E0D00D45E0D00DD5E0D00C8
:10441C00DF5E0D00024B034800221A7000F008B852
:10442C0088E503208CE503200368C9B29B68184714
:10443C00002242608260C26040F2011202820122BC
:10444C008274704738B504460D460068612101F04E
:10445C008FFA290A2068FFF7E7FF2068E9B2FFF717
:10446C00E3FF206801F08BFA08B1002038BD20680A
:10447C000222612101F075FA206803681B699847D4
:10448C000028F2D0206803685B69984705462068CD
:10449C0003685B699847C3B243EA052080B2E5E73D
:1044AC0008B540F20221FFF7CDFF431E5842584198
:1044BC0008BD2DE9F8430446FFF7F2FF074618B98B
:1044CC0000273846BDE8F8832068612101F050FAD6
:1044DC0003212068FFF7A8FF00212068FFF7A4FF45
:1044EC00206801F04CFA05460028E9D1122261211E
:1044FC00206801F036FA206803681B699847064665
:10450C0058B3A8462E46A946206803685B699847AD
:10451C00EBB2102B0DD8DFE803F009090C09090CDC
:10452C0018180C18180C1C1C0C1C1C00C3B243EAE9
:10453C0009290135122DE7D10023C4F80490A66097
:10454C00C4F80C802382A374BBE7C3B243EA0626EB
:10455C00EFE7C3B243EA0828EBE780468146EBE776
:10456C0010B5037C04460BB1FFF7A3FFD4ED017A21
:10457C00FCEEE77A0123237417EE903A98B210BD43
:10458C000A44FF208A4211D011F8013B58400823FD
:10459C0010F0800F03F1FF334FEA400018BF80F09A
:1045AC00310013F0FF03C0B2F2D1EBE77047F7B55F
:1045BC0053BA0E46154601A902220446ADF8043042
:1045CC00FFF7DEFF61210746206801F0D1F9310ABF
:1045DC002068FFF729FFF1B22068FFF725FF290AB1
:1045EC002068FFF721FFE9B22068FFF71DFF206864
:1045FC00036839469B689847206801F0C0F9B0FA07
:10460C0080F0400903B0F0BD0A461021FFF7CFBF80
:10461C000021FFF7F9BF0A464FF48C41FFF7C7BFE3
:10462C0038B504460846216001F06CF92046FFF7C6
:10463C00EFFF054648B102212046FFF7ECFF0122AF
:10464C0045F206312046FFF7B2FF284638BD000080
:10465C0008B5024B1B689B68019308BD68020300F8
:10466C0008B5024B1B68DB68019308BD68020300A8
:10467C0008B5024B1B689B68019308BD2C02030014
:10468C0008B5024B1B68DB68019308BD2C020300C4
:10469C0008B5024B1B681B69019308BD2C02030073
:1046AC0008B5024B1B685B68019308BD1802030038
:1046BC0008B5024B1B685B69019308BD1802030027
:1046CC0008B5024B1B685B6C019308BD48020300E4
:1046DC0008B5024B1B685B69019308BD64020300BB
:1046EC0008B5024B1B681B68019308BD3C02030014
:1046FC0008B5024B1B68DB68019308BD3C02030044
:10470C0008B5024B1B681B69019308BD3C020300F2
:10471C0008B5024B1B685B69019308BD3C020300A2
:10472C0008B5024B1B689B69019308BD3C02030052
:10473C0008B5024B1B68DB69019308BD3C02030002
:10474C0008B5024B1B681B6A019308BD3C020300B1
:10475C0008B5024B1B689B6A019308BD3C02030021
:10476C0008B5024B1B689B68019308BD2802030027
:10477C0008B5024B1B68DB68019308BD28020300D7
:10478C0008B5024B1B689B69019308BD2802030006
:10479C0008B5024B1B68DB69019308BD28020300B6
:1047AC0008B5024B1B681B6A019308BD2802030065
:1047BC0008B5024B1B685B6A019308BD2802030015
:1047CC0008B5024B1B689B6A019308BD28020300C5
:1047DC0008B5024B1B68DB6A019308BD2802030075
:1047EC0008B5024B1B681B6B019308BD2802030024
:1047FC0008B5024B1B685B6B019308BD28020300D4
:10480C0008B5024B1B681B6C019308BD2802030002
:10481C0008B5024B1B681B6D019308BD28020300F1
:10482C0008B5024B1B68DB69019308BD300203001D
:10483C0008B5024B1B681B6A019308BD30020300CC
:10484C0008B5024B1B681B68019308BD4C020300A2
:10485C0008B5024B1B681B69019308BD4C02030091
:10486C0008B5024B1B685B69019308BD4C02030041
:10487C0008B5024B1B689B69019308BD4C020300F1
:10488C0008B5024B1B68DB69019308BD4C020300A1
:10489C0008B5024B1B681B6A019308BD4C02030050
:1048AC0008B5024B1B685B68019308BD200203002E
:1048BC0008B5024B1B685B69019308BD200203001D
:1048CC0008B5024B1B68DB6C019308BD200203008A
:1048DC0008B5024B1B685B6D019308BD20020300F9
:1048EC0008B5034B1B68D3F88830019308BD000052
:1048FC002002030008B5034B1B68D3F894300193D6
:10490C0008BD00002002030008B5024B1B685B6861
:10491C00019308BD4002030008B5024B1B689B685D
:10492C00019308BD4002030008B5024B1B68DB680D
:10493C00019308BD4002030008B5024B1B681B69BC
:10494C00019308BD4002030008B5024B1B685B696C
:10495C00019308BD4002030008B5024B1B689B691C
:10496C00019308BD4002030008B5024B1B68DB69CC
:10497C00019308BD4002030008B5024B1B681B6A7B
:10498C00019308BD4002030008B5024B1B681B6B6A
:10499C00019308BD4002030008B5024B1B685B6B1A
:1049AC00019308BD4002030008B5024B1B681B6C49
:1049BC00019308BD4002030008B5024B1B685B6CF9
:1049CC00019308BD4002030008B5024B1B685B68ED
:1049DC00019308BD4402030008B5024B1B689B6899
:1049EC00019308BD4402030008B5024B1B685B69C8
:1049FC00019308BD4402030008B5024B1B681B6AF7
:104A0C00019308BD4402030008B5024B1B68DB6B25
:104A1C00019308BD4402030008B5024B1B681B68D8
:104A2C00019308BD1C02030008B5024B1B685B68B0
:104A3C00019308BD1C02030008B5024B1B689B6860
:104A4C00019308BD1C02030008B5024B1B68DB6A0E
:104A5C00019308BD1C02030008B5024B1B681B6BBD
:104A6C00019308BD1C02030008B5024B1B685B6C6C
:104A7C00019308BD1C020300002240681146FFF799
:104A8C007BBF002240681146FFF786BF40680022BA
:104A9C00FFF77ABF4068002281F00101FFF764BF85
:104AAC00002340681A461946FFF756BF002340689A
:104ABC001A461946FFF748BF002240681146FFF717
:104ACC003BBF002240681146FFF726BF406800221A
:104ADC000221FFF729BF002340681A46FFF714BFD5
:104AEC00024B03225A60024A1A607047A8E5032061
:104AFC00F05E0D0010B5044608462170FFF790FEDD
:104B0C0000236360204610BD054B02221A60054B42
:104B1C00054A9A600020186098809871FFF7C0BE13
:104B2C00BCE50320B0E503200000FFFF10B50446F0
:104B3C0001F033F9013823182046834206D9027854
:104B4C00197800F8011B03F80129F6E710BD70B5C0
:104B5C000C46911E2229054622D820466DB1B5FB84
:104B6C00F2F602FB1655E9B2092D94BF30315731DC
:104B7C00C9B200F8011B3546F0E702462344302148
:104B8C00934202D902F8011BFAE71A1A834238BF82
:104B9C000022002383542046FFF7C8FF204670BD37
:104BAC000020FCE738B5031E0C4615460EDAB3F1AF
:104BBC00004F4FF02D0214BF5842184601230A70C3
:104BCC002A461944FFF7C3FF204638BD0123F9E7F5
:104BDC0010B504460068FFF727FF204610BD10B53E
:104BEC000446006808B1FFF71FFF0023C4E9013336
:104BFC00236010BD38B504460D4600680131FFF73F
:104C0C001BFF10B1C4E90005012038BD10B50368C5
:104C1C00044623B143688B4201D3012010BD2046CA
:104C2C00FFF7E8FF0028F9D0A368002BF5D1226824
:104C3C001370F2E737B50D46114601920446FFF7A3
:104C4C00E5FF019A28B92046FFF7C9FF204603B0BB
:104C5C0030BDA2602946206801F035F82268A368AF
:104C6C000021D154F2E7002313B5C0E90033044608
:104C7C008360037341B10846019101F08EF80199EC
:104C8C0002462046FFF7D6FF204602B010BD8842F0
:104C9C0010B5044605D00B682BB18A681946FFF78E
:104CAC00C9FF204610BDFFF79AFFFAE710B50023A5
:104CBC000446C0E9003383600373FFF7E8FF204626
:104CCC0010BD13B5044659B10846019101F065F8C1
:104CDC00019902462046FFF7ADFF204602B010BDF9
:104CEC00FFF77DFFF9E710B504468AB00023C4E94D
:104CFC000033A3602373084601A9FFF753FF01A9F2
:104D0C002046FFF7DEFF20460AB010BD70B5054601
:104D1C000E4609B9002070BD6AB18468144421465E
:104D2C00FFF774FF0028F5D02868AB6831461844AB
:104D3C0001F00EF8AC600120EDE710B58A68096847
:104D4C000446FFF7E3FF10B92046FFF748FF204663
:104D5C0010BD13B5044629B92046FFF740FF204685
:104D6C0002B010BD0846019101F017F801990246F6
:104D7C002046FFF7CBFF0028EED0F0E708B582689D
:104D8C003AB921B10878B0FA80F0400900E001206E
:104D9C0008BD006809B90078F5E700F0CFFFF2E72D
:104DAC000B68036013B15A6801325A6070470000F7
:104DBC00024800230360FFF783BC00BFC0E503205B
:104DCC00F8B506460D468F180024BD420CD033684A
:104DDC0015F8011B9B6830469847031E01DB1C44E9
:104DEC00F3E7002C08BF1C462046F8BD13B504465B
:104DFC00084659B1019100F0D0FF23680199DB6896
:104E0C000246204602B0BDE81040184702B010BD63
:104E1C0003689B68184730B58BB000238DF824309D
:104E2C00012A98BF0A2209AC0D46B1FBF2F101FB35
:104E3C00125303F0FF03092B94BF30333733DBB22B
:104E4C00AA4204F8013DEFD92146FFF7CFFF0BB082
:104E5C0030BD0000014B024A1A607047C4E50320C4
:104E6C00245F0D00024B1A68024B1A60704700BF9A
:104E7C001CE50320C8E503200021FFF719BD10B580
:104E8C008368044613B1032201469847204610BD9F
:104E9C0013B50B460246D0E900016C4684E80300CA
:104EAC0093E8030082E8030094E8030083E803001E
:104EBC0002B010BD014B00229A607047CCE5032074
:104ECC00014B1860704700BF20E5032008B50B4B61
:104EDC0043B100F021FC03681B699847002801DDF1
:104EEC00AFF30080064B43B100F090FC03681B69E4
:104EFC009847002801DDAFF3008008BD00000000DA
:104F0C000000000008B5FFF7E1FFFFF7D1FB014BF4
:104F1C00186008BD38E703200548064A064908B55D
:104F2C00121A00F0D0FE054B054A1A6008BD00BFEE
:104F3C0000F4032004F40320A0600D0000F403200F
:104F4C001E1C279A07B5002300931A466FF07701B1
:104F5C00FFF7D0FC03B05DF804FB000007B54388F5
:104F6C000A2B08D0502B0BD1094B1B684BB103B04B
:104F7C005DF804EB1847FFF7E5FF03B05DF804FBA1
:104F8C00002300931A466FF07701FFF7B3FCF4E7A8
:104F9C00E0E5032010B512480021FFF765FD114B29
:104FAC001A68114B9A42114B0CBF012200221A7045
:104FBC0001D0FFF7B1FFFFF773FB044600F09AFE38
:104FCC000B4B13B12046AFF3008000210848FFF7CC
:104FDC001BFDBDE8104007480021FFF781BC00BF56
:104FEC00CD4E0D0000F403201E1C279ADCE5032097
:104FFC0000000000694F0D0070470020704710B58D
:10500C001021044600F052FE204610BD08B5FFF7F3
:10501C00F6FF08BD30B500224FF69C740260848008
:10502C008D888C800C68858004600A6030BD10B55A
:10503C0004460068FFF7F8FC204610BD38B5C4687C
:10504C00F4B12378022B03D104F10C00FFF7EFFF2E
:10505C00656835B12846FFF712FF1021284600F08D
:10506C0025FEA56835B12846FFF709FF1021284613
:10507C0000F01CFE20461421BDE8384000F016BE9E
:10508C0038BD10B588B004466846FFF7ECFD69469C
:10509C0004A8FFF70BFE04A8A047044604A8FFF7DA
:1050AC0097FD6846FFF794FD204608B010BD1FB56C
:1050BC000023CDE90201019210241A4669461846D4
:1050CC00ADF80230ADF80040FFF77EFC04B010BD27
:1050DC0073B50E46044656F8043B00930D4601A8E2
:1050EC003146FFF75DFE019A009B6260236001A8C8
:1050FC00002301930093FEF7FDFF3046FEF7FAFF05
:10510C002846082100F0D2FD204602B070BD82680E
:10511C0010B50AB900F0CEFDBDE81040C3681847C1
:10512C0008B5006800F11001FFF7F1FF08BD8268B7
:10513C0010B50AB900F0BEFDBDE81040C3681847B1
:10514C0008B5006800F11001FFF7F1FF08BD000081
:10515C0038B500230446036010200D46FEF793FF7C
:10516C0028B10123C0E90133024B0360C560206004
:10517C00204638BD4C5F0D0038B5002383608B682A
:10518C0004460D462BB102229847EB68E360AB68EE
:10519C00A360204638BD0000F0B589B004686846AD
:1051AC00FFF738FF4FF00203D4E84F2F002A03D14A
:1051BC00C4E8413F0029F7D125D104F10C0569461B
:1051CC002846FFF727FFBFF35B8F01236370002096
:1051DC0004F10803BFF35B8F53E8006F43E8000250
:1051EC00002AF9D1BFF35B8F6EB1FFF769FB78B181
:1051FC0029463046FFF78BFF3046FFF740FE102163
:10520C00304600F053FD6846FFF711FF09B0F0BDC2
:10521C00314602A8FFF7B0FFE068B4F9105008B1AE
:10522C0000F09EFD06901020ADF81C50FEF72BFFF1
:10523C000546E8B1002787601820FEF724FF0446D6
:10524C0088B10146876002A8FFF722FE049BA26882
:10525C00A360059B049206A9E268E36004F11000C8
:10526C000592FFF7D7FE084BEB60084B2C60AB6048
:10527C0006A8FFF7DCFE02A8FFF701FE0022294674
:10528C000348FFF725FBB7E72D510D00C5530D0063
:10529C0065580D002DE9F0478AB005469DF84890F9
:1052AC000C4617469846FFF79FFB07AE824638BB65
:1052BC004FF62E73059005A93046ADF81830FFF760
:1052CC00A9FE1420FEF7DFFE044648B1022303704A
:1052DC000123C0E901AA437031460C30FFF79AFE56
:1052EC002846214640F8044BFFF732FF3046FFF7C3
:1052FC009EFE05A8FFF79BFE28460AB0BDE8F08786
:10530C000C234FF0000A1420CDE908AA0793FEF7EE
:10531C00BAFE014628B1C0E901AA80F800A080F8C5
:10532C0001A004A80391FFF713FF224B0893082058
:10533C00FEF7A9FE824628B1039B40F8043B04A962
:10534C00FFF72EFD00965FFA89F342463946204658
:10535C00CDF824A0FFF750FBB8B9039B5B7803F0A2
:10536C00FF0293B94FF69C7305A903A80592ADF8FB
:10537C001830FFF711FF05A8FFF759FE05A809998A
:10538C00FFF7A6FE06A8FEF7B5FE039B059304A93E
:10539C0006A8FFF705FD059B069A2B606A600023A3
:1053AC0006A806930593FEF7A5FE04A8FEF7A2FE39
:1053BC00A2E700BF89540D00022AF8B5054607D0B4
:1053CC00032A18D0012A01D10B6803600020F8BD14
:1053DC0018200E68FEF757FE044650B13146FFF711
:1053EC00CBFE3069B6F9147008B100F0B9FC20613D
:1053FC00A7822C60EAE70468002CE7D004F11000C7
:10540C00FFF715FE2046FFF73AFD1821204600F065
:10541C004DFCDBE738B5002383608B6804460D46F2
:10542C002BB102229847EB68E360AB68A36020467F
:10543C0038BD022A70B5044607D0032A12D0012ABF
:10544C0001D10B680360002070BD14200E68FEF7BC
:10545C001AFE054620B13146FFF7DCFF337C2B7476
:10546C002560F0E70468002CEDD02046FFF707FD1F
:10547C001421204600F01AFCE5E70000F0B589B0D5
:10548C0004460D4601A81146FFF722FEA4B124B232
:10549C001DB1284600F064FC054601A803A903953C
:1054AC00ADF81040FFF778FE03A8FFF7C0FD02A887
:1054BC00FEF720FE09B0F0BD019D0123D5E84F2F6A
:1054CC00002A03D1C5E8413F0029F7D1EFD12B7356
:1054DC00BFF35B8F6B702B1DBFF35B8F53E8006FBB
:1054EC0043E80042002AF9D1BFF35B8F002EDED0D7
:1054FC002046FFF7E5F9074660B105F10C0130468F
:10550C00FFF715FE3046FFF7BAFC1021304600F0CD
:10551C00CDFBCCE7314603A8FFF77CFF2B7B8DF846
:10552C001C301020FEF7AFFD0546D0B1876014206B
:10553C00FEF7A9FD044678B18760014603A8FFF782
:10554C00A7FC059BA268A360069B0592E268E3603A
:10555C009DF81C3006922374064BEB60064B2C60B6
:10556C00AB6003A8FFF78BFC002229460348FFF72A
:10557C00AFF9C7E74D510D003F540D0065580D00B4
:10558C00704710B51821044600F090FB204610BD62
:10559C00F0B5037D062B8DB00E4600F104074FF0DD
:1055AC00000412D000F1080515F8011D0A2230463E
:1055BC00FFF731FCAF42044419D0002CF4D02E215B
:1055CC003046FFF725FC0444EEE72F236A463946A4
:1055DC000A208DF80040FFF77BF8684600F0DDFBF1
:1055EC0033680246DB6869463046984704462046D5
:1055FC000DB0F0BD10B5054B0446112240F8043B2C
:10560C00002100F06EFB204610BD00BF685F0D004E
:10561C000346074A10B543F8042B01F1100251F868
:10562C00044B43F8044B9142F9D10A781A7010BD1F
:10563C00685F0D0010B59DF8084044EA032343EA67
:10564C00024242EA016104234160037510BD13B5A7
:10565C00CB7800938B784A780978FFF7EBFF02B090
:10566C0010BD417470477047704708B50021007C2D
:10567C00FFF7FEF840EAE07008BD08B50121007C98
:10568C00FFF7F6F840EAE07008BD08B5007CFFF7BC
:10569C00E7F820EAE07008BD08B5007CFFF7D8F801
:1056AC0020EAE07008BD13B50446007C0191FFF7B9
:1056BC00D7F80028019901DC607C20B1207CFFF731
:1056CC00DFF820EAE07002B010BD007CFFF7E0B814
:1056DC0010B51421044600F0E9FA204610BD000074
:1056EC0010B54FF47A73044608460021C4E901133F
:1056FC00044B23600123207463741146FFF7A0F858
:10570C00204610BD7C5F0D0010B51422044600210C
:10571C0000F0E7FA204610BD10B50F4C88B003A876
:10572C00FFF7F2FF2178BFF35B8F11F001010FD16E
:10573C0020460191FEF7ADFC019948B103AA074838
:10574C00FFF7CEFF2046FEF7A9FC054800F0B5FA9E
:10575C00024808B010BD00BFE4E50320E8E50320D3
:10576C0073560D00704741747047704708B5007C44
:10577C00FEF7EEFF20EAE07008BD08B5007CFEF7EE
:10578C00BFFF20EAE07008BD08B5007CFEF7C8FF3B
:10579C0040EAE07008BD08B5007CFEF7B9FF40EAAE
:1057AC00E07008BD007CFEF7C3BF37B5457C0446EE
:1057BC002DB1207C03B0BDE83040FEF799BF007CD2
:1057CC000191FEF7C5FF00280199F2DC284603B0D1
:1057DC0030BD10B51421044600F068FA204610BD07
:1057EC0010B54FF0000C0446084611464FF47A727F
:1057FC00C4E901C2044A22600122207462741A4670
:10580C00FEF76EFF204610BDAC5F0D0013B50D4CBE
:10581C002178BFF35B8F11F0010110D1204601916B
:10582C00FEF737FC019950B1074B084A0848FFF7BF
:10583C00D7FF2046FEF732FC064800F03EFA04483B
:10584C0002B010BDFCE5032084E6032000E6032033
:10585C0008E7032077570D0010B5836804460BB991
:10586C0000F028FAC3689847A3681BB103222146AD
:10587C002046984720461021BDE8104000F016BA8B
:10588C007047F8B5064615460C468F18BC4206D034
:10589C00336814F8011B9B6830469847F6E7284696
:1058AC00F8BD007C0022FEF77BBF007C0021FEF7D8
:1058BC007FBF007C0021FEF783BF007C0021FEF738
:1058CC0087BF007C0021FEF78BBF10B51421044666
:1058DC0000F0ECF9204610BD10B54FF47A73044675
:1058EC0008460021C4E90113034B236020741146C0
:1058FC00FEF786FF204610BDDC5F0D00007C002209
:10590C00FEF72EBF0023007C1A461946FEF730BF67
:10591C007FB500221423CDE90122ADF804300B78B9
:10592C008DF808304B680393CB680493007C0B7A9A
:10593C00059301A9FEF76CFF07B05DF804FB1FB5DA
:10594C00003B8DF800104FF06401039118BF012348
:10595C00694601928DF80830FFF7DAFF05B05DF863
:10596C0004FB0123FFF7EBBF007C0022FEF708BF0E
:10597C00C9B2FFF7F9BF007C0022FEF709BF012175
:10598C00FFF7F9BF002240681146FEF7D5BF002291
:10599C0040681146FEF7F0BF002240681146FEF742
:1059AC00FBBF40680022FEF7EFBF4068002281F089
:1059BC000101FEF7D9BF002340681A461946FEF7CD
:1059CC00CBBF002340681A461946FEF7BDBF002224
:1059DC0040681146FEF7A0BF406800220221FEF786
:1059EC00A3BF002340681A46FEF78EBF024B042269
:1059FC005A60024A1A6070471CE7032004600D00CD
:105A0C00002340681A46FEF77FBF4068002202213F
:105A1C00FEF78ABF002240681146FEF77DBF0022C8
:105A2C0040681146FEF788BF002340681A461946A5
:105A3C00FEF78ABF002340681A461946FEF78CBF52
:105A4C0040680021FEF7B0BF40680021FEF7B4BFEC
:105A5C004068002281F00101FEF786BF40680022F9
:105A6C00FEF792BF002240681146FEF795BF002258
:105A7C0040681146FEF780BF2DE9F043002495B035
:105A8C0016460D460746FFF7B5FD214618220EA80F
:105A9C00009400F026F94023CDE90C3421466B46E6
:105AAC000CAA3046FEF7DCFD0446002846D102461F
:105ABC0001216868FEF740FF022180462246686893
:105ACC00FEF73AFF009E81462146002E36D0002973
:105ADC0034D17368022B03D00A2B0BD0F669F4E790
:105AEC00B8F1000F04D0716938460431FFF7AFFDEF
:105AFC004146F3E7B9F1000F01D14946EEE774696D
:105B0C00102201A800F0EDF806238DF8143001AD39
:105B1C0004F108031834186859682A4603C208337C
:105B2C00A3421546F7D101A906A807ADFFF770FDF2
:105B3C000FCD3C1D0FC42B682370DEE70098FEF7D9
:105B4C0087FD384615B0BDE8F0830000024B034AD0
:105B5C001A6000225A60704724E7032040600D0051
:105B6C00232813B502D9002002B010BDA0F10B03FD
:105B7C00022B1AD8174C2178BFF35B8F11F001015F
:105B8C000BD120460191FEF784FA019928B11248F5
:105B9C00FEF7B0FF2046FEF781FA0F4B1878FEF7A0
:105BAC0047FE0028DFD10120DEE7012809D800F0EC
:105BBC0059F80021007CFEF71BFE80F00100C0B2FA
:105BCC00D2E709380128EED8FFF720FE007CFEF75B
:105BDC00B7FDF2E72CE7032030E70320232838B584
:105BEC0004460D460AD8FF2908D0FFF7B9FF28B1A3
:105BFC0029462046BDE83840FEF73ABD38BD38B5D9
:105C0C0004460D46FEF73CFDFF2810D0062804D8AC
:105C1C004D2323FA00F0C30709D42046FFF7A0FF59
:105C2C0028B129462046BDE83840FEF731BD38BDC5
:105C3C007047000038B50023202543801423044608
:105C4C000380856005610649284600F031F8044957
:105C5C006060284600F02CF8E060204638BD00BF9C
:105C6C0074600D0030B50E4D2978BFF35B8F11F0C9
:105C7C00010487B011D12846FEF70BFA68B101A8D0
:105C8C00FFF7D8FF01AA21460648FFF725FE284654
:105C9C00FEF704FA044800F010F8024807B030BDD3
:105CAC003CE7032040E703203D5C0D00FEF7EFB915
:105CBC00FEF7EBB908B5FEF7C7FE002301461A46FE
:105CCC00184600F073B80A44914200F1FF3300D13A
:105CDC00704710B511F8014B03F8014F9142F9D1FF
:105CEC0010BD02440346934200D1704703F8011BD8
:105CFC00F9E7000038B50D4B1D68AB6B04467BB95A
:105D0C001820FEF789FE0A4A0A4BA863C0E9002353
:105D1C00094B83600B23838101220023C0E90423F8
:105D2C00AB6B00221C615A6138BD00BF20E503201B
:105D3C000E33CDAB34126DE6ECDE050010F8012B02
:105D4C0011F8013B012A28BF9A42F7D0D01A7047AC
:105D5C00034611F8012B03F8012B002AF9D17047E7
:105D6C00024B0146186800F003B800BF20E5032081
:105D7C0037B5044608460D4600F00FF8421C114694
:105D8C0020460192FEF768FE044618B1019A294696
:105D9C00FFF799FF204603B030BD034613F8012BE3
:105DAC00002AFBD1181A0138704700002DE9F8437E
:105DBC00DFF8B8800646D8F800001F460D4691461D
:105DCC0000F056F8254B1C6834B9254C1C60254B4B
:105DDC0013B11B68C4F8883063681F2B07DDD8F833
:105DEC00000000F047F84FF0FF30BDE8F8834EB3E9
:105DFC00D4F8880088B91C4B23B9D8F8000000F0FF
:105E0C0038F8F0E74FF48470FEF706FE0028F4D063
:105E1C000023C0E94033C4F88800636840F823903D
:105E2C0001229A4000EB8301D0F800311343022E7B
:105E3C00C0F80031C1F8807002BFD0F804311A43A9
:105E4C00C0F804216368D8F800005A1C0233626061
:105E5C0044F8235000F00EF80020C6E7E0E70320DA
:105E6C0054E7032000000000254A0D0084E50320C0
:105E7C0070477047704700001D400D0059400D00E1
:105E8C0081400D0085400D000000000073656E64BC
:105E9C0044617461007B2274726967676572223A8F
:105EAC00007D00636F3270706D007B227065616BDA
:105EBC00223A007B22636F32223A0073656E6400D3
:105ECC0064726F704D61670072657365744D6167C4
:105EDC000031006572726F7200000000000000005B
:105EEC0000000000E34A0D00D94A0D00CF4A0D0016
:105EFC00C54A0D00B94A0D00AD4A0D004D5A0D00B2
:105F0C00555A0D00A14A0D00994A0D008F4A0D00FB
:105F1C00854A0D00855A0D006170700025592D259C
:105F2C006D2D25645425483A254D3A2553257A0084
:105F3C0061736374696D650000000000000000006F
:105F4C0005500D000B500D0049500D0019500D005F
:105F5C0007500D0000000000000000009D550D00D2
:105F6C008D550D008F550D00000000000000000045
:105F7C0075560D00DD560D00B3560D00CD4D0D00C0
:105F8C00A5560D0077560D0087560D00D7560D00FF
:105F9C0097560D006F560D00000000000000000029
:105FAC0071570D00DF570D00B7570D00CD4D0D008B
:105FBC0087570D00A3570D0095570D00B1570D00D5
:105FCC0073570D0079570D00000000000000000011
:105FDC008D580D00D7580D00AF580D008F580D007F
:105FEC00B7580D00BF580D00C7580D00CF580D0005
:105FFC000000000000000000EF590D00E5590D00F5
:10600C00DB590D0091590D00CF590D00C3590D00EE
:10601C004D5A0D00555A0D00B7590D00AF590D00D2
:10602C00A5590D009B590D00855A0D00000000006C
:10603C00000000000D5A0D00175A0D00215A0D00DA
:10604C002B5A0D00355A0D00415A0D004D5A0D00BA
:10605C00555A0D005D5A0D00695A0D00715A0D000C
:10606C007B5A0D00855A0D000000000021440D00E4
:10607C00ED4A0D00154B0D00BD4D0D00614E0D0090
:10608C00714E0D00C14E0D00F9590D00595B0D00FC
:04609C000000000000
:0460A00000000000FC
:1060A400070000003C5F0D0024E503200000000011
:1060B40000000000000000000000000000000000DC
:1060C40000000000000000000000000000000000CC
:1060D40000000000000000000000000000000000BC
:1060E40000000000000000000000000000000000AC
:1060F400000000000000000000000000000000009C
:10610400000000000000000000000000E5E703209C
:10611400FFFFFFFF00000102030405060708090A48
:106124000B0C0D0E0F101112131415161718191A43
:086134001B1C1D1E1F2028008A
:04613C00785634124B
:04000003D000401CCD
:00000001FF
